{
  "contractName": "Election",
  "abi": [
    {
      "constant": true,
      "inputs": [],
      "name": "candidatesCount",
      "outputs": [
        {
          "name": "",
          "type": "uint256"
        }
      ],
      "payable": false,
      "stateMutability": "view",
      "type": "function"
    },
    {
      "constant": true,
      "inputs": [
        {
          "name": "",
          "type": "uint256"
        }
      ],
      "name": "candidates",
      "outputs": [
        {
          "name": "id",
          "type": "uint256"
        },
        {
          "name": "name",
          "type": "string"
        },
        {
          "name": "voteCount",
          "type": "uint256"
        }
      ],
      "payable": false,
      "stateMutability": "view",
      "type": "function"
    },
    {
      "constant": true,
      "inputs": [
        {
          "name": "",
          "type": "address"
        }
      ],
      "name": "voters",
      "outputs": [
        {
          "name": "",
          "type": "bool"
        }
      ],
      "payable": false,
      "stateMutability": "view",
      "type": "function"
    },
    {
      "inputs": [],
      "payable": false,
      "stateMutability": "nonpayable",
      "type": "constructor"
    },
    {
      "anonymous": false,
      "inputs": [
        {
          "indexed": true,
          "name": "_candidateId",
          "type": "uint256"
        }
      ],
      "name": "votedEvent",
      "type": "event"
    },
    {
      "constant": false,
      "inputs": [
        {
          "name": "_candidateId",
          "type": "uint256"
        }
      ],
      "name": "vote",
      "outputs": [],
      "payable": false,
      "stateMutability": "nonpayable",
      "type": "function"
    }
  ],
  "bytecode": "0x608060405234801561001057600080fd5b5061005e6040805190810160405280600781526020017f467269656e6473000000000000000000000000000000000000000000000000008152506100b0640100000000026401000000009004565b6100ab6040805190810160405280601581526020017f486f772049204d657420596f7572204d6f7468657200000000000000000000008152506100b0640100000000026401000000009004565b6101d2565b6002600081548092919060010191905055506060604051908101604052806002548152602001828152602001600081525060016000600254815260200190815260200160002060008201518160000155602082015181600101908051906020019061011c92919061012d565b506040820151816002015590505050565b828054600181600116156101000203166002900490600052602060002090601f016020900481019282601f1061016e57805160ff191683800117855561019c565b8280016001018555821561019c579182015b8281111561019b578251825591602001919060010190610180565b5b5090506101a991906101ad565b5090565b6101cf91905b808211156101cb5760008160009055506001016101b3565b5090565b90565b610404806101e16000396000f300608060405260043610610062576000357c0100000000000000000000000000000000000000000000000000000000900463ffffffff1680630121b93f146100675780632d35a8a2146100945780633477ee2e146100bf578063a3ec138d14610173575b600080fd5b34801561007357600080fd5b50610092600480360381019080803590602001909291905050506101ce565b005b3480156100a057600080fd5b506100a96102f0565b6040518082815260200191505060405180910390f35b3480156100cb57600080fd5b506100ea600480360381019080803590602001909291905050506102f6565b6040518084815260200180602001838152602001828103825284818151815260200191508051906020019080838360005b8381101561013657808201518184015260208101905061011b565b50505050905090810190601f1680156101635780820380516001836020036101000a031916815260200191505b5094505050505060405180910390f35b34801561017f57600080fd5b506101b4600480360381019080803573ffffffffffffffffffffffffffffffffffffffff1690602001909291905050506103b8565b604051808215151515815260200191505060405180910390f35b6000803373ffffffffffffffffffffffffffffffffffffffff1673ffffffffffffffffffffffffffffffffffffffff16815260200190815260200160002060009054906101000a900460ff1615151561022657600080fd5b60008111801561023857506002548111155b151561024357600080fd5b60016000803373ffffffffffffffffffffffffffffffffffffffff1673ffffffffffffffffffffffffffffffffffffffff16815260200190815260200160002060006101000a81548160ff0219169083151502179055506001600082815260200190815260200160002060020160008154809291906001019190505550807ffff3c900d938d21d0990d786e819f29b8d05c1ef587b462b939609625b684b1660405160405180910390a250565b60025481565b6001602052806000526040600020600091509050806000015490806001018054600181600116156101000203166002900480601f0160208091040260200160405190810160405280929190818152602001828054600181600116156101000203166002900480156103a85780601f1061037d576101008083540402835291602001916103a8565b820191906000526020600020905b81548152906001019060200180831161038b57829003601f168201915b5050505050908060020154905083565b60006020528060005260406000206000915054906101000a900460ff16815600a165627a7a723058201b77014d57b3d85f4c5adcd671650881ff9d01f44ddc86b4c1d2ed4470fe150a0029",
  "source": "pragma solidity ^0.4.2;\n\ncontract Election {\n\t//Model candidate\n\tstruct Candidate {\n\t\tuint id;\n\t\tstring name;\n\t\tuint voteCount;\n\t}\n\t//Store accounts that voted\n\tmapping(address => bool) public voters;\n\t//Store candidates\n\tmapping(uint => Candidate) public candidates; //Key Value pair\n\t//Fetch candidates\n\t//Store candidate count\n\tuint public candidatesCount;\n\n\t//Voted event\n\tevent votedEvent (uint indexed _candidateId);\n\n\tfunction Election() public {\n\t\taddCandidate(\"Friends\");\n\t\taddCandidate(\"How I Met Your Mother\");\n\t}\n\n\tfunction addCandidate (string _name) private {\n\t\tcandidatesCount++;\n\t\tcandidates[candidatesCount] = Candidate(candidatesCount, _name, 0);\n\t}\n\n\tfunction vote (uint _candidateId) public {\n\t\t//Require that they haven't voted before\n\t\trequire(!voters[msg.sender]);\n\t\t//Require a valid candidate\n\t\trequire(_candidateId > 0 && _candidateId <= candidatesCount);\n\t\t//Record voter has voted\n\t\tvoters[msg.sender] = true;\n\t\t//Update candidate vote count\n\t\tcandidates[_candidateId].voteCount++;\n\t\t//Trigger voted event\n\t\tvotedEvent(_candidateId);\n\t}\n}\n",
  "sourcePath": "/Users/niharikasingh/Desktop/blockchain-voting/contracts/Election.sol",
  "compiler": {
    "name": "solc",
    "version": "0.4.23+commit.124ca40d.Emscripten.clang"
  },
  "schemaVersion": "2.0.0",
  "updatedAt": "2018-06-03T08:17:58.886Z"
}